:02000000332BA0
:0400060000000800EE
:10000A00083083120313FC002330FD00FD0B0B287C
:06001A00FC0B0B2808009E
:10002000103083120313FD00FD0B1428000008009C
:10003000831203179B1B1E2886131F2886171B1B62
:1000400023280613242806179B1A282886122928F5
:1000500086161B1A2D2806122E28061603136D1855
:100060003328061534280611861503208611031738
:100070009B193C2886133D2886171B194128061317
:10008000422806179B1846288612472886161B18F2
:100090004B2806124C28061603136D185128061516
:1000A000522806118615032086116D1C592805203B
:0600B0005A281020080090
:1000B600831203179B019D019E0110309F0004309F
:1000C6001E0203188B28F0300313880003171F093C
:1000D600831603138800032003200F3083120805BC
:1000E600F000700803179C007008031985281D0886
:1000F6009B001C08031983289C0C9C139B0A7C28D4
:1001060004309E009F0D1F1004309D079E0A622832
:060116001B08F0000800C8
:0E011C00033083120313FD00FD0B9228080030
:10012A00A7288030831203179800BA28C030980095
:10013A00BA2894309800BA28D4309800BA28803067
:10014A009800BA28831203171808013A0319962847
:10015A001808023A03199B281808033A03199E281B
:10016A001808043A0319A128A4281903F00018084A
:10017A00F0077008980003136D14700803179B00AA
:10018A0018206D1003171A089B0018206D14080018
:10019A00831603178C1CD3280000CD288312180855
:1001AA008D0019088C0083168C130C150B08F000AF
:1001BA008B1355308D00AA308D008C14F01BE72864
:0A01CA008B13E8288B170C110800B6
:1001D400831203136D10031718089B0018206D1465
:0201E400080011
:1001E6005B20700898000F3003130805F000031910
:0E01F600FE288E20F62803171808F0000800D7
:100204008312031718088D0083168C130C148312A1
:060214000C08F0000800D8
:10021A001A3083120313FC00F830FD00FD0B13297A
:08022A00FC0B13290000080081
:100232000D2103179801831603136608831203170F
:100242009900CD200D210130031798008316031366
:100252006708831203179900CD200D21023003177E
:100262009800831603136808831203179900CD20A0
:100272000D210330031798008316031369088312B4
:0802820003179900CD200800CC
:10028A000D21031798010221700890000D210130F9
:10029A00031798000221700891000D2102300317FC
:1002AA0098000221700892000D210330031798006C
:0A02BA000221700893000D210800D6
:1002C40083120313EC01F32070080313EC0070088D
:1002D400031965299D293130EC00DD293230EC0009
:1002E400DD293330EC00DD293430EC00DD293530F4
:1002F400EC00DD293630EC00DD293730EC00DD2957
:100304003830EC00DD293930EC00DD294130EC00D7
:10031400DD294230EC00DD294330EC00DD29443096
:10032400EC00DD292A30EC00DD293030EC00DD2939
:100334002330EC00DD296C08013A03196D296C089F
:10034400023A031970296C08033A031973296C08DB
:10035400053A031976296C08063A031979296C08B9
:10036400073A03197C296C08093A03197F296C0898
:100374000A3A031982296C080B3A031985296C0877
:10038400043A031988296C08083A03198B296C0864
:100394000C3A03198E296C08103A031991296C0838
:1003A4000D3A031994296C080E3A031997296C081D
:1003B4000F3A03199A292E08E63E84006C0880003F
:1003C400023003179800063003132E070317990011
:1003D40003132E08E63E8400000803179A009520B4
:0803E400AE0A0319AF0A08007C
:0E03EC00831203136B088A006A08820008005F
:1003FA000F2A8030831203179400222AC0309400F7
:10040A00222A94309400222AD4309400222A80305E
:10041A009400222A831203171408013A0319FE29A9
:10042A001408023A0319032A1408033A0319062A7C
:10043A001408043A0319092A0C2A1503F0001408AF
:10044A00F0077008940070089B0018206D100317BD
:10045A009701170816078400000803193D2A170890
:10046A001607840000089800EA200317970A2E2A24
:06047A0003136D140800DD
:100480000130831203179B001820013003179400DA
:100490000230950030309600FD210330FB008A3099
:1004A000FC005530FD00FD0B532AFC0B532AFB0BBF
:1004B000532A00000000AE01AF01622183166608D6
:1004C0002A3A031D642A402A6221831667082A3AC1
:1004D000031D6B2A402A6221831668082A3A031DED
:1004E000722A402A6221831669082A3A031D792A52
:1004F000402A622183166A082A3A031D802A402A6C
:100500006A08233A031DAB2A192145210330FB0059
:100510008A30FC005530FD00FD0B8C2AFC0B8C2A28
:10052000FB0B8C2A000000000230031794000530FA
:10053000950026309600FD210830FB009D30FC0020
:100540000530FD00FD0BA22AFC0BA22AFB0BA22A00
:1005500000000000C62A8312013003179B001820F8
:100560000130031794000730950020309600FD21DC
:100570000630FB001330FC00AD30FD00FD0BBE2A41
:0E058000FC0BBE2AFB0BBE2A00000000080088
:10058E00831603138611061106128612061386139E
:10059E008312861106118613061386120612052083
:1005AE0005200520861606168615032086110520C1
:1005BE008615032086110520861503208611052039
:1005CE000612861503208611052086150320861136
:1005DE0086128617861503208611052086130616A9
:1005EE008615032086110612861503208611052016
:1005FE008615032086110616861503208611052002
:10060E0006128615032086118617061786160616FD
:0C061E0086150320861105206D140800CD
:10062A00823083120313FC00DD30FD00FD0B1B2B0F
:0A063A00FC0B1B2B00000000080061
:0A064400FF3083160313880008003E
:10064E00F6218A110A128000840AEA0A0319EB0ABB
:08065E00F003031D272B080027
:1006660024260730831603139F0485012223C722FD
:10067600452103171008FF3A031D662B1108FF3AA0
:10068600031D662B1208FF3A031D662B1308FF3A5B
:10069600031D662B980132309900CD200D210130C3
:1006A6000317980035309900CD200D21023003172D
:1006B600980038309900CD200D210330031798009B
:1006C60030309900CD204521013003179B001820BA
:1006D6000C3003179B0018200330FB008A30FC0007
:1006E6005530FD00FD0B752BFC0B752BFB0B752B8D
:1006F6000000000001300317940002309500B83066
:100706009600FD2102300317940003309500AC30AB
:100716009600FD211030FB003930FC000D30FD0045
:10072600FD0B932BFC0B932BFB0B932B0000000074
:10073600013003179B001820EE01EF018312051408
:100746008511013003179B0018200230031794000F
:1007560004309500D8309600FD21AE01AF0162212C
:10076600831666082A3A031D8D2D0130831203175E
:100776009B00182001300317940004309500CC30FC
:100786009600FD21AE01AF016221831666082A3A62
:10079600031DCE2BB82B6221831667082A3A031D48
:1007A600D52BB82B6221831668082A3A031DDC2B49
:1007B600B82B6221831669082A3A031DE32BB82B4E
:1007C600622183166A082A3A031DEA2BB82B6608AB
:1007D600313A031D062C6708313A031D062C6808BA
:1007E600313A031D062C6908313A031D062C6A08A6
:1007F600313A031D062C622183166B08233A031D2A
:10080600062C4022A12B831280306F06F000803028
:100816007002031D102C03306E020318FA2C831687
:100826006608831203171006031DFA2C831603139A
:100836006708831203171106031DFA2C8316031388
:100846006808831203171206031DFA2C8316031376
:100856006908831203171306031DFA2C8316031364
:100866006A08233A031DFA2C8312051D5C2C051118
:10087600EE01EF01013003179B001820013003172A
:10088600940002309500B8309600FD211030FB0030
:100896003930FC000D30FD00FD0B4F2CFC0B4F2CAE
:1008A600FB0B4F2C00000000013003179B001820A3
:1008B600A12B013003179B00182001300317940069
:1008C600023095005C309600FD210230031794003B
:1008D600023095004D309600FD21EE01EF01051026
:1008E60005151F30FB007130FC001E30FD00FD0BAE
:1008F6007A2CFC0B7A2CFB0B7A2C000001300317A8
:100906009B001820023003179400023095004D30EA
:100916009600FD21AE01AF0180302F06F000803039
:100926007002031D982C03302E020318A32C1C30D2
:1009360003179B0018201523AE0A0319AF0A8F2C44
:100946000330FB008A30FC005530FD00FD0BA92C5E
:10095600FC0BA92CFB0BA92C00000000AE01AF017B
:1009660080302F06F00080307002031DBC2C05304D
:100976002E020318C72C183003179B0018201523C6
:10098600AE0A0319AF0AB32C0330FB008A30FC0011
:100996005530FD00FD0BCD2CFC0BCD2CFB0BCD2CCF
:1009A60000000000AE01AF0180302F06F00080305D
:1009B6007002031DE02C02302E020318EB2C1C30B3
:1009C60003179B0018201523AE0A0319AF0AD72C6C
:1009D6000B30FB002630FC005D30FD00FD0BF12CDA
:1009E600FC0BF12CFB0BF12C00000000192D8312DF
:1009F6000313EE0A0319EF0A013003179B001820B0
:100A0600013003179400033095003E309600FD2117
:100A16000B30FB002630FC005D30FD00FD0B112D78
:100A2600FC0B112DFB0B112D0000000080306F0612
:100A3600F00080307002031D222D03306E02031C6D
:100A46008D2D05110510851580306906F000803062
:100A56007002031D302D033068020318862D013005
:100A660003179B0018200330FB008A30FC0055302A
:100A7600FD00FD0B3C2DFC0B3C2DFB0B3C2D000023
:100A8600000001300317940003309500A030960053
:100A9600FD210330FB008A30FC005530FD00FD0BC4
:100AA600522DFC0B522DFB0B522D00000000013085
:100AB60003179B0018200330FB008A30FC005530DA
:100AC600FD00FD0B642DFC0B642DFB0B642D00005B
:100AD600000001300317940003309500A030960003
:100AE600FD210630FB001330FC00AD30FD00FD0B90
:100AF6007A2DFC0B7A2DFB0B7A2D00000000E80AFC
:100B06000319E90A272D0230EE000030EF00E80154
:080B1600E901A12BA12B8E2D9A
:100C480020308400483083120313F0009430EA0007
:100C58000530EB002723A03084000C3083120313E7
:100C6800F0001630EA000630EB00272368308400D5
:100C7800023083120313F0002230EA000630EB0042
:100C88002723AC3084003A3083120313F000DC30A1
:0A0C9800EA000530EB0027230800F6
:0C0B28004534523452344F3452340034FF
:100B34002A3448344534433448344F342A34003456
:040B44000034003445
:100B480020344E345534453456344F3420344334ED
:0C0B58004F344434493447344F340034E7
:100B640020342034443445344E34453447344134FD
:0E0B740044344F340034003400340034003474
:100B820020342A344234493445344E3456344534C0
:0E0B92004E34493444344F342A342034003475
:100BA000203420345034453452344D344934543494
:080BB000493444344F34003491
:100BB8002034503452344F34543445344734493453
:080BC80044344F3420340034A2
:100BD0002E342E342E345334493453345434453463
:100BE0004D3441342E342E342E340034003400344D
:080BF00000340034003400342D
:100BF8002034203443344F344434493447344F3458
:080C08002034203400340034D4
:100C1000503452344534433449344F344E344134E3
:0C0C20005234203427342A3427340034A6
:100C2C0020342A34503445344C344934473452340B
:080C3C004F342A342034003447
:040C44000034003444
:02400E004A2F37
:00000001FF
