:020000040000FA
:10000000831603137F308600071007118312031332
:10001000870186010C3097000330920012110710FF
:10002000003095000618212886182E2806193B282E
:1000300086194828061A5528861A6228061B6F2832
:100040000E280714121583160313EE309200831244
:1000500003137730950006182B280E280714121565
:1000600083160313D3309200831203136930950073
:10007000861838280E280714121583160313BD306E
:100080009200831203135E309500061945280E284E
:100090000714121583160313B13092008312031351
:1000A00063309500861952280E28071412158316FE
:1000B00003139E309200831203134F309500061AEB
:1000C0005F280E2807141215831603138D30920033
:1000D0008312031346309500861A6C280E280714E5
:1000E0001215831603137E309200831203133F30E0
:0800F0009500061B79280E287B
:0400F800003400349C
:02400E00323F3F
:00000001FF
