:020000040000FA
:1000000083160313071387148312031307139C210A
:100010000C305221B9207A208D2087180D28083005
:10002000AD00AD03C0302D0752212614C320A0001F
:10003000303020076521FA300D222614C320A1009C
:10004000303021076521FA300D222614C320A2008A
:10005000303022076521FA300D222614C320A30078
:10006000303023076521FA300D2204302002031DB1
:10007000472806302102031D472802302202031DB3
:10008000472801302302031D472856200D28083039
:10009000AD00AD03C0302D07522120306521203046
:1000A000652120306521203065210D28A220871C84
:1000B0005728071787185A2807130130AD00AD03DA
:1000C00080302D07522106220130AD00AD03803073
:1000D0002D0752217A200830AD00AD03C0302D0726
:1000E00052212030652120306521203065212030CB
:1000F000652108000630AD00AD0380302D07522188
:10010000413065214330652143306521453065210B
:10011000533065214F30652108000130AD00AD033B
:10012000C0302D075221433065214C3065214130CC
:10013000652156306521453065213A3065212030F2
:10014000652108000530AD00AD0380302D07522138
:10015000433065214F306521523065215230652191
:100160004530652143306521543065214F3065218C
:10017000080083160313F0308600811383120313E3
:10018000A401A60108000030A700FE308600000090
:100190000608A500EE30250203192529DE302502C8
:1001A00003192829BE30250203192B297E30250288
:1001B00003194029FD30860000000608A500ED3037
:1001C000250203192E29DD30250203193129BD30FE
:1001D0002502031934297D30250203194329FB30F8
:1001E000860000000608A500EB3025020319372918
:1001F000DB30250203193A29BB30250203193D29BA
:100200007B30250203194629F730860000000608D6
:10021000A500E730250203194C29D7302502031920
:100220002229B730250203194F29773025020319F7
:100230004929F730250203191D290130A700261C82
:100240000800C3280030A40008000130A400080002
:100250000230A40008000330A40008000430A40009
:1002600008000530A40008000630A400080007308C
:10027000A40008000830A40008000930A400080009
:100280000A30A40008000B30A40008000C30A400C1
:1002900008000D30A40008000E30A40008000F3044
:1002A000A4000800AA007C212A08F039880008115F
:1002B000881000008815000088112A0EF039880087
:1002C00000008815000088110800AB00AA007C21FE
:1002D0002A08F039880008118814000088150000E9
:1002E00088112A0EF039880008118814000088153A
:1002F000000088112B08080083160313F0308800D3
:1003000083120313881008150000881500000808E0
:100310008811F039AC00000088150000080E881123
:100320000F39AC04AC1B7C29081183160313003071
:100330008800831203130800831203138811081125
:1003400088100F308800831603130F30880088113F
:10035000081188108312031314300D2230308800E6
:1003600000008815000088110A300D223030880006
:1003700000008815000088113030880000008815C2
:100380000000881102300D222030880000008815FE
:1003900000008811283052210F30522101305221A3
:1003A00006305221803052210800AF002F082C2245
:1003B0000A302F02031CEB2964302F02031CF3299F
:1003C000FF302F02031CFC294F3065215530652179
:1003D00054306521080020306521203065213030FF
:1003E00034076521EA292030652130303507652141
:1003F000303034076521EA29303036076521303046
:1004000035076521303034076521EA291030A9000D
:1004100020306521A90B092A0800B0001130B10075
:100420003A30B20000000000B20B122AB10B102AC1
:10043000B00B0E2A0800B000FA30B100FA30B2005A
:100440001330B3000000B30B222AB20B202AB10BE9
:100450001E2AB00B1C2A0800B400B601B5010A30F0
:100460003402031C3C2AB400B50A0A303502031CCE
:0E0470002F2AB501B60A2F2A350E34070800D0
:02047E00003448
:02048000003446
:02400E00323F3F
:00000001FF
